:100000000004001075000000F10C0000F10C00006D
:10001000F10C0000F10C0000F10C0000F10C0000EC
:10002000F10C0000F10C0000F10C0000F10C0000DC
:10003000F10C0000F10C0000F10C0000F10C0000CC
:10004000F10C0000F10C0000F10C0000F10C0000BC
:10005000F10C0000F10C0000F10C0000F10C0000AC
:10006000F10C0000F10C0000F10C0000F10C00009C
:10007000F10C000070B51D4A1D4BD41AA01093421C
:1000800011D00021043C640702C3E40F93420AD05C
:10009000002C02D002C3934205D01D1C02C559603A
:1000A0002B1D9342F9D11349134BCA1A96103018DD
:1000B0008B4217D0141F6207D40F104A20CA20C3E6
:1000C0008B420FD0002C03D010CA10C38B4209D032
:1000D000151C40CD1C1C40C456682A1D5E60231DA3
:1000E0008B42F5D1002100F093F8FEE700000010EC
:1000F000000000100000001000000010F4180000C4
:10010000F0B557464E464546E0B43B498027C859AE
:1001100080256A020243CA518E2301228A679D000C
:100120004E590023BE4323204E5188600B644B641C
:100130004A64CF68304C01263A42FAD00321982510
:100140002167666766512D4DA423E8588A4607212A
:100150008843E850EF58A8203743EF502A588023AF
:100160008A432A502F58894637432F50E258590165
:10017000234F1143E150984683204B46BB60F86003
:10018000A16F204800F0D6FDE122510200F0D2FD1F
:100190001021B9620023386050467B60B022F860BD
:1001A0000220A850E864296E4B46994329662F6EB9
:1001B00037432F666A6E47469A436A66696E3A010C
:1001C00031436966E35910491A43E25140239427A9
:1001D000E35162680D4F16436660434638613960EB
:1001E00078606867E2589E011643E6501CBC904652
:1001F0009946A246F0BDC04600800440004004403D
:1002000000800040C0C62D0007010000000004402F
:1002100038B5041CFFF774FFC82000F0F3FB211C65
:100220001F4800F00BF91F4C80221302E158F02503
:100230002D012943E15000F043F8F0208301E258FA
:1002400019481543E55000F0DDFB184800F0F6F8BA
:10025000002000F05DF8144800F0D4FB144800F0D2
:10026000EDF8012000F054F80F4800F0CBFB1148E6
:1002700000F0E4F8022000F04BF80B4800F0C2FB5D
:100280000D4800F0DBF8032000F042F8064800F0CB
:10029000B9FB0A4800F0D2F8042000F039F8FEE774
:1002A000301600000000025080841E005816000026
:1002B00068160000741600008416000098160000EE
:1002C000F8B50E480E4C00F0B9F800260D4A8E2500
:1002D000E660AB00D158102081430B4E0B4FD1503C
:1002E00001252760216B0D42FCD005480369301CB5
:1002F0005A04910D00F0A2F8F3E7C046A4160000DE
:1003000000C0014000800440BC160000010C000148
:1003100010B5194AF0239B01D45818492140D150F7
:10032000012821D000280AD18021D058890001431A
:10033000D150D0588024E1000143D15010BD022893
:1003400016D0032805D0D058F02421010143D15004
:10035000F4E78024D05861000143D150D058802464
:1003600021010143D150E9E78024D0586100DEE744
:100370008021D0588900EFE700000250FFF0FFFF16
:1003800000B5044920224B691A42FCD0014908609B
:1003900000BDC0460080004030B500290ADD064A95
:1003A0000025202453691C42FCD0435D01351360B5
:1003B0008D42F7D130BDC0460080004010B50478B2
:1003C000002C09D0054A202153691942FCD0146041
:1003D00001300478002CF7D110BDC04600800040E9
:1003E00010B584B0134C144A019020213020536979
:1003F0001942FCD01060013420780028F7D102ACFB
:1004000001A8211C042200F035FB0B4A0720202103
:1004100053691942FCD0235C13600138F8D20649B5
:10042000202248690242FCD0034920220A6004B01D
:1004300010BDC046C8180000008000400FB4F0B5E1
:100440005F4656464D464446F0B48DB016AB40CBA1
:1004500000220AA8027032780B930027002A0ED0DF
:10046000B74C01362025252A14D061690D42FCD0F5
:10047000B34B1A60327801370136002AF3D1381CA9
:100480000DB03CBC90469946A246AB46F0BC08BCB9
:1004900004B01847002200232021042003928B4639
:1004A000022284469A46B946337801367A2BFBD825
:1004B000A44F990078588746039803998700B84657
:1004C000884440464700303BF9180391ECE7062288
:1004D000EAE70722E8E70B994F460A1D0B920968E5
:1004E0000A78002AC6D060690542FCD0226001313A
:1004F0000A78002AF7D1BDE74F46042292483021FE
:1005000063691D42FCD02160013001780029F7D1D8
:100510001020002100900191042AABD88B49900053
:100520000A589746082000210090019151464F46F5
:100530000029F1D061690D42FCD0814B3020186058
:100540000820002100900191E6E7033A531E9A41EA
:1005500063469A1AA8E70522A6E7013A531E9A4174
:10056000A2E70A2000214F4600900191D4E7102015
:1005700000210090019151464F460029CCD0BDE7A3
:100580000398002898D130239B468DE70127BA466F
:100590008AE74F4662691542FCD0252268E74F463C
:1005A0006DE70B9800210368021D99460B920AAB78
:1005B0004A46B246B94602930E1C171C00E0434659
:1005C000013B9846381C311C009A019B00F002FC4C
:1005D000D2B23723092A00D83023D21840460270FD
:1005E000311C381C009A019B00F0F4FB031C071C13
:1005F0000E1C0B43E3D102990398434656464F46DF
:10060000C91A002800D04FE1002900DC32E700229F
:1006100060690542FCD04046835C013223608A4217
:10062000F6D127E70B9800210368021D98460AAB14
:10063000B946B2460B9202930E1C474600E0434671
:10064000013B9846381C311C009A019B00F0C2FB0C
:10065000D2B23723092A00D83023D218404602707C
:10066000311C381C009A019B00F0B4FB031C071CD2
:100670000E1C0B43E3D102990398434656464F465E
:10068000C91A002800D001E1002900DCF2E60022AE
:1006900060690542FCD04046835C013223608A4297
:1006A000F6D1E7E60B990AAB08780A1D0021B94696
:1006B000B2460B9202930E1C071C00E04346013B1E
:1006C0009846381C311C009A019B00F083FBD2B283
:1006D0003723092A00D83023D21843461A70381C11
:1006E000311C009A019B00F075FB031C071C0E1CBB
:1006F0000B43E3D1029B4046191A039B56464F46D3
:10070000002B00D0B4E0002900DCB3E600226369CE
:100710001D42FCD04346985C013220608A42F6D1EB
:10072000A8E60B990AA80B880A1D9A460B9200218D
:100730005246B946B2460290031C0E1C171C08E034
:1007400000800040C8160000C8180000B41800005F
:100750004346013B9846381C311C009A019B00F02F
:1007600039FBD2B23723092A00D83023D2184346A6
:100770001A70381C311C009A019B00F02BFB031CE3
:10078000071C0E1C0B43E3D102984346C11A039B7E
:1007900056464F46002B5ED1002900DC6AE6002257
:1007A00060690542FCD04046835C013223608A4286
:1007B000F6D15FE60B98072107308843021C083208
:1007C00043680B9202689C460AA9B946B246029158
:1007D0000B1C6646171C00E04346013B9846381C3C
:1007E000311C009A019B00F0F5FAD2B23723092A96
:1007F00000D83023D21843461A70381C311C009A96
:10080000019B00F0E7FA031C071C0E1C0B43E3D10D
:10081000029B4046191A039B56464F46002B0DD1AA
:10082000002900DC26E6002263691D42FCD0434615
:10083000985C013220608A42F6D11BE60A1C191C22
:100840009A42EDD263691D42FCD0584601392060BE
:100850008A42F7D3E4E70A1C191C9A429CD26069C9
:100860000542FCD05B46013923608A42F7D393E707
:100870000A1C191C9A4200D345E763691D42FCD04B
:100880005846013920608A42F7D33CE70A1C011C14
:10089000824200D3F8E660690542FCD05B4601392C
:1008A00023608A42F7D3EFE60A1C011C824200D380
:1008B000AAE660690542FCD05B46013923608A42A2
:1008C000F7D3A1E600B5044901224B691A42FCD0D6
:1008D00001490868C0B200BD00800040F0B55F4625
:1008E00056464D464446F0B4324C334A87B0202039
:1008F000202153691942FCD010600134207800286F
:10090000F7D10E27092408262B4A002101200025B3
:10091000BC46A046B14653691842FCD014686E46E6
:10092000E3B273540F2924D01E1C413EF7B20524B4
:100930002E1CBC426E411360B346002E12D13027EC
:100940007E42F418E7B246465C46BE426441002C43
:1009500008D1202B06D00A2B0ED00E29DBDC4F4607
:100960001760D8E7CB0F002664468C427341C91844
:10097000D1E74F461760D7E7002906D107B03CBC46
:1009800090469946A246AB46F0BD6846059404944D
:1009900000F0F0F869460131042205A800F03CF9A6
:1009A0000549202248690242FCD003490A220A6014
:1009B000E4E7C046CC18000000800040A022D3012C
:1009C000C21810044018704710B5084B0004C01836
:1009D000046801238B401C43046004688A40634020
:1009E00003600368111C1943016010BD00800050B2
:1009F000A023DB01C018042300048B40C1180A6047
:100A00007047C04600B54200074912180023D000C5
:100A10000B60802248608B6001230B6052020B68E0
:100A20001342FCD000BDC04610E000E000B507490D
:100A3000002240000A60012348608A6080220B6027
:100A400052020B681342FCD000BDC04610E000E02B
:100A500000B5031C3738392B00D8073000BDC0461D
:100A600000B5092802DD3730C0B200BD3030C0B259
:100A7000FBE7C046F0B54F464646C0B49146002A53
:100A800067DD131C0578013B012630241E402B092D
:100A9000E2181C1C0F274D1C3734092B5FDD2C700E
:100AA00003783B40DCB2251C30353734092B54DD4C
:100AB00001230C704B454CD0002E16D0C45C302660
:100AC0002209B518AC46151CCE1C3735092A4EDD57
:100AD0003570C25C3A40D5B22E1C30363735092A03
:100AE0003FDD01338D704B4533D0C45C3026240983
:100AF0005D0032194E19B446261C3736092C00DC2D
:100B0000161C64466670C45C30223C40E6B2921902
:100B10003736092C00DC161C4E550133C45C3026D8
:100B200024095D0032194E19B446261C3736092CAB
:100B300000DC161C64466670C45C30223C40E6B2A1
:100B400092193736092C00DC161C01334E554B45E3
:100B5000CBD10CBC90469946F0BD2C1CA8E7141CC8
:100B60009DE7351C01338D704B45BED1F1E76546DD
:100B7000AEE7C04670B5002941DD012502784B1E65
:100B80002C1C1C40131C373B392A3FD91A01012366
:100B900002708B4233D0002C10D0C65C321C373A26
:100BA000392E36D92E1C1E4021D15C101201041999
:100BB00032430133267022708B4220D0C45C221C49
:100BC000373A392C00D807322E1C1E4018D05E1040
:100BD00084192678324322700133C45C221C373AD0
:100BE000392CDFD8221C2E1C303A1E40DDD05E107E
:100BF000841926780133324322708B42DED170BDD6
:100C00005C100419267012010026E3E7131C303B28
:100C1000BCE70732C6E7C046F0B55F4656464D46CC
:100C20004446F0B4031C80188B46834258D0C41A43
:100C3000A2089100A2469446894657D059460322FD
:100C40001943A242B6410A40514251415A46043228
:100C50009A42BF4175427E421F1D5F45A441294013
:100C6000654235430D4241D05E466446013C3168E1
:100C700001252540644619600126012C11D9002D5B
:100C800004D002CA022602C7B4450AD9151C02CDF7
:100C90003C1C02C45168023679602A1D271DB445E8
:100CA000F4D859464B444944CA4519D00A78DC4324
:100CB00006191A70012401333440013183420FD0E8
:100CC000002C05D00A7801311A700133834207D015
:100CD0000F781F704D7802315D7002338342F7D177
:100CE0003CBC90469946A246AB46F0BD5946DDE76E
:100CF00008B50A48FFF762FB09490A4A02238858E7
:100D00000342FCD0084A402351690B42FCD0074AF9
:100D1000074BDA60BFF34F8FFEE7C046D0180000E4
:100D200000000350FC3F0000008000400400FA0572
:100D300000ED00E0002934D00123002210B48842E5
:100D40002CD301242407A14204D2814202D20901FA
:100D50001B01F8E7E400A14204D2814202D249001B
:100D60005B00F8E7884201D3401A1A434C08A042BE
:100D700002D3001B5C0822438C08A04202D3001B54
:100D80009C082243CC08A04202D3001BDC0822436B
:100D9000002803D01B0901D00909E3E7101C10BC8F
:100DA0007047002801D00020C04307B4024802A1C8
:100DB0004018029003BDC046190000000029F0D081
:100DC00003B5FFF7B9FF0EBC4243891A1847C04666
:100DD0007047C046002B11D1002A0FD1002900D145
:100DE000002802D00021C943081C07B4024802A110
:100DF0004018029003BDC046D9FFFFFF03B4684608
:100E000001B5029800F022F8019B9E4602B00CBC8E
:100E10007047C046F0B583B0141C1D1C00900191B2
:100E200000F050F8061C0F1C321C3B1C201C291C17
:100E300000F026F8009A019B121A8B410899301C89
:100E40000A604B60391C03B0F0BDC046F0B583B0FA
:100E5000141C1D1C0090019100F016FA221C2B1C82
:100E6000061C0F1C00F00CF8009A019B121A8B4113
:100E70000899301C0A604B60391C03B0F0BDC046B5
:100E8000F0B5060415049C46330C2F0C1E1C150CE3
:100E9000041C000C7E436B4347434543FB18300C56
:100EA0001818874202D980235F02ED193304664681
:100EB00074435143070CED1961181F0C0004C0194D
:100EC0004919F0BDF0B55F4656464D464446F0B46C
:100ED000002585B01C1CA846002900DADCE0002CA7
:100EE00000DAD0E08346894692461E1C141C071C7B
:100EF0000D1C002B52D18A4265D9101C00F07AFBE0
:100F0000002807D02026321A59468540D140844017
:100F10000D4387402204110C260C8B46281C311CE3
:100F2000FFF708FF5B4643438146311C281C9A4665
:100F3000FFF744FF380C090401438A450CD94B469E
:100F40000919013B8C4200D97EE18A4500D87BE13A
:100F500002204542A94409195246891A8A46081CAA
:100F6000311CFFF7E7FE5B464343311C051C50462E
:100F70009B46FFF723FF3F040E043F0C3743BB455E
:100F800007D93F196B1EBC4202D8023DBB4500D8B1
:100F90001D1C4C4623042B43002503E000258B42F7
:100FA00060D90023181C4346291C002B04D0031CC5
:100FB0002C1C00215842A14105B03CBC90469946EA
:100FC000A246AB46F0BD002A04D101200021FFF764
:100FD000B1FE041C201C00F00DFB002865D120048C
:100FE0002E1B050C0096AB46260C0125311C0098E3
:100FF000FFF7A0FE5946414381468A460098311CBE
:10100000FFF7DCFE380C090401438A4508D94B463A
:101010000919013B8C4202D88A4500D92EE1994634
:101020005046081A311C0090FFF784FE5946414390
:1010300082468B460098311CFFF7C0FE3F040E0429
:101040003F0C3743BB4508D953463F19013BBC42CF
:1010500002D8BB4500D90DE19A464B461B045646C3
:1010600033439FE7181C00F0C5FA041E76D15146A1
:101070008F426441E7B20025002F02D14E4500D3D4
:101080008FE701238EE74446E6431D1C141CB0463F
:1010900000236242AB4125E7051C0E1C002168427B
:1010A000B14101256D42A84619E72026331A3A1CA2
:1010B000DA40161C8440291C8540D9402E43250463
:1010C0008A460196290C260C8B468740311C5046D7
:1010D000FFF730FE5D4681464543311C5046FFF721
:1010E0006DFE019A0904130C19438D420CD94B462D
:1010F0000919013B8C4200D9BAE08D4200D8B7E013
:1011000002225042814409194D1B281C311CFFF753
:1011100011FE5A4642438246311C281C0092FFF7BA
:101120004DFE01980D0401040B0C00991D43A942CA
:101130000CD953462D19013BAC4200D992E0A9428B
:1011400000D88FE002214B429A442D19009B504653
:10115000EA1A4D462D040092054347E72022131B4F
:101160005546391CDD40D9404A46A6402E435046DC
:10117000A2400D1C1543A0403204110C00900195B3
:101180004846350CD8400291291C8346FFF7D2FD12
:10119000029B82464343291C58469946FFF70EFEA0
:1011A000019A0904100C014389450AD9534689194B
:1011B000013B8E425AD8894558D9022043429A446D
:1011C00089194A46881A291C0390FFF7B3FD029932
:1011D0008346414303988946291CFFF7EFFD019B95
:1011E00009041A04150C294389450AD95B46891953
:1011F000013B8E4238D8894536D902235D42AB4443
:10120000891948460E1A534600995A461B0413433F
:1012100008041D04000C2A0CB1461D0C0E0C011C08
:10122000514368437243754382180E0C92198C46E1
:10123000904202D9802671026D18100C2D18A94514
:101240000DD303D00025ADE6994685E66646310408
:10125000A74015040A0C3C1CAF18BC42F2D2013B5B
:1012600000259FE69A4671E79B46CAE79A46A8E79B
:10127000994649E702225442A244EEE602235A422A
:1012800091440919CCE6C046F0B55F4656464D4636
:101290004446F0B483B080460D1C171C1E1C141C61
:1012A00082468946002B54D18A426ED9101C00F028
:1012B000A1F900280CD020272B1C3E1A4546F540EA
:1012C0008340291C42461943824084408946924605
:1012D0002304190C250C8B464846291CFFF72AFDD0
:1012E0005E46071C4643291C4846FFF767FD5246E9
:1012F0000904100C01438E4209D909197B1E8C4246
:1013000000D95CE18E4200D859E1023F09198E1BD9
:10131000301C291CFFF70EFD59464143B0468B4651
:10132000061C291C4046FFF749FD524610040904DB
:10133000050C29438B4508D90919731E8C4200D925
:101340003BE1023E8B4500D837E13F04374300259F
:1013500012E08B420ED8181C00F04CF9041E64D128
:101360004046B8426441E2B2002A00D022E1AE42D7
:1013700000D21FE100250027381C291C03B03CBC0B
:1013800090469946A246AB46F0BD002A04D1012002
:101390000021FFF7CFFC041C201C00F02BF90028D3
:1013A00000D0B5E023042D1B1F0CAB46260CB9461C
:1013B0000125311C5846FFF7BDFC4F468046474388
:1013C000311C5846FFF7FAFC52460904130C194326
:1013D0008F4208D943460919013B8C4202D88F42FB
:1013E00000D902E19846CF1B381C311CFFF7A2FC44
:1013F00049464143BB468946071C311C5846FFF706
:10140000DDFC504602040904160C3143894508D915
:1014100009197B1E8C4200D9D3E0023F894500D8D0
:10142000CFE043461C042743A6E72022101B3B1CA9
:101430004246C240C340A6401E43291C131CA5407F
:101440002B43C140A740350C300400978B46070C56
:10145000081C291C0193FFF76DFCBA465146414315
:10146000071C89465846291CFFF7A8FC019A090465
:10147000130C1943894505D989197B1E8E4200D862
:10148000A9E01F1C48460A1A101C291C9346FFF7A6
:1014900051FC5146414381468A465846291CFFF774
:1014A0008DFC019B09041804050C29438A4506D9C3
:1014B0004B468919013B8E4200D884E09946009E34
:1014C0004B463F041F43300455463A04000C130CAE
:1014D000491B3A0C350C061C5E4350436B436A4370
:1014E000C318350C5B19984202D98025680212187E
:1014F000180C1218914208D308D11A0433041E0C98
:1015000045469119A5408D4200D2013F002533E7A1
:101510002026311A2F1C8440CF4042464646CA40FE
:10152000BB4686402704131C8540390CB246260C66
:101530002B4389465846311C0093FFF7FBFB4F466F
:1015400080464743311C5846FFF738FC009A080490
:10155000150C0543AF420AD943462D19013BAC4255
:101560003FD8AF423DD90223584280442D19ED1B8C
:10157000281C311CFFF7DEFB4B464343071C311C84
:10158000281C9B46FFF71AFC00980D0401040A0C66
:101590001543AB4507D92D197B1EAC4223D8AB456B
:1015A00021D9023F2D1958464246291A15048B4667
:1015B0003D43FEE600250127DEE61E1CC5E61F1C96
:1015C000A5E61F1C2DE78A4500D877E702235D4278
:1015D000A944891973E7894500D852E7023F891960
:1015E00050E79846C3E71F1CDDE7022358428044BA
:1015F0000919F8E61C2101231B04984201D3000CB1
:1016000010391B0A984201D3000A08391B09984275
:1016100001D30009043902A2105C40187047C0468B
:1016200004030202010101010000000000000000AB
:1016300053797374656D20626F6F74656420757083
:101640002C202575206279746573206F66205241C5
:101650004D20757365640A00476F696E6720666F79
:1016600072776172640A0000476F696E67206C656B
:1016700066740A00476F696E672072696768740A4A
:1016800000000000476F696E67206261636B7761DD
:101690007264730A0000000053746F7070696E67A3
:1016A0000A00000073657474696E67207570206DA0
:1016B0006963726F70686F6E650A00000D41444384
:1016C0003A202569000000009E050000A8040000E3
:1016D000A8040000A8040000A8040000A80400005A
:1016E000A8040000A8040000A8040000A80400004A
:1016F000A8040000A8040000A8040000A80400003A
:10170000A8040000A8040000A8040000A804000029
:10171000A8040000A8040000A8040000A804000019
:10172000A8040000A8040000A8040000A804000009
:10173000A8040000A8040000A8040000A8040000F9
:10174000A8040000A8040000A8040000A8040000E9
:10175000A80400008C050000A80400009205000009
:10176000A8040000A8040000A8040000A8040000C9
:10177000A8040000A8040000A8040000A8040000B9
:10178000A8040000A804000080050000B8040000C0
:10179000B8040000B8040000B8040000B804000059
:1017A000B8040000B8040000B8040000B804000049
:1017B000A8040000A8040000A8040000A804000079
:1017C000A8040000A8040000A8040000A804000069
:1017D000A8040000A8040000A8040000A804000059
:1017E000A8040000A8040000A8040000A804000049
:1017F000A8040000A8040000A8040000A804000039
:10180000A8040000A8040000A8040000A804000028
:10181000A8040000A8040000A8040000A804000018
:10182000A8040000A80400006E050000A804000041
:10183000A8040000A8040000A8040000A8040000F8
:10184000A8040000A8040000A8040000A8040000E8
:10185000A8040000A804000062050000A80400001D
:10186000A8040000A80400005A050000620500005A
:1018700056050000A80400004A050000A804000066
:10188000A804000024050000F8040000A8040000DB
:10189000A8040000D6040000D20400006205000085
:1018A000A8040000A80400006E050000A8040000C1
:1018B000CE040000A4060000220700002406000059
:1018C000A2050000B407000030780000203E200090
:1018D000416E61726B692070C3A520736B61737375
:0C18E0006962757373656E0A00000000F9
:0818EC00D8F5FF7F01000000A8
:040000030000007584
:00000001FF
